{
  "transactions": [
    {
      "hash": "0x33f7d9d9479d9a00306f75c664c857f88d099ea60a5b40b8c571d2bcd5ddaa8c",
      "transactionType": "CALL",
      "contractName": null,
      "contractAddress": "0x2694ad040fc7b42a3fd8872ae653a47ce567280b",
      "function": "mintNft(string)",
      "arguments": [
        "https://bafybeiattgho7jsedtsk4m4pebov7uwx6v424fq2uvp46th7byfvq6pqja.ipfs.dweb.link?filename=PudgeNft.json"
      ],
      "transaction": {
        "from": "0xecf8990bf975edb6c7f18ffd1557d473803c4325",
        "to": "0x2694ad040fc7b42a3fd8872ae653a47ce567280b",
        "gas": "0x39b9a",
        "value": "0x0",
        "input": "0xda86f4a90000000000000000000000000000000000000000000000000000000000000020000000000000000000000000000000000000000000000000000000000000006968747470733a2f2f6261667962656961747467686f376a73656474736b346d347065626f76377577783676343234667132757670343674683762796676713670716a612e697066732e647765622e6c696e6b3f66696c656e616d653d50756467654e66742e6a736f6e0000000000000000000000000000000000000000000000",
        "nonce": "0x12",
        "chainId": "0xaa36a7"
      },
      "additionalContracts": [],
      "isFixedGasLimit": false
    }
  ],
  "receipts": [
    {
      "status": "0x1",
      "cumulativeGasUsed": "0xd6aaec",
      "logs": [
        {
          "address": "0x2694ad040fc7b42a3fd8872ae653a47ce567280b",
          "topics": [
            "0xddf252ad1be2c89b69c2b068fc378daa952ba7f163c4a11628f55a4df523b3ef",
            "0x0000000000000000000000000000000000000000000000000000000000000000",
            "0x000000000000000000000000ecf8990bf975edb6c7f18ffd1557d473803c4325",
            "0x0000000000000000000000000000000000000000000000000000000000000003"
          ],
          "data": "0x",
          "blockHash": "0x333b46f6630d6c6e40152f279c7d2fb0e6f470875928b283353a9f2b3124eb75",
          "blockNumber": "0x837182",
          "blockTimestamp": "0x6859c728",
          "transactionHash": "0x33f7d9d9479d9a00306f75c664c857f88d099ea60a5b40b8c571d2bcd5ddaa8c",
          "transactionIndex": "0x6f",
          "logIndex": "0x8d",
          "removed": false
        }
      ],
      "logsBloom": "0x00000000000000000000000000000000000000000000000000000000000000000000000000000000000000000000000000000000020000000000000010000000000000000000000000000008000000000004000000000000000000000000000000000008020000000000000000000800000000000000000000000010000000000000000000000000000000008000000000000000000000000000000000000000000000000000000000000000000000000000000000800000000000000000400000000002000000000000000010000000000000000000000000000000000020000000000000000000000000000000000000000000000000001000000000000000",
      "type": "0x2",
      "transactionHash": "0x33f7d9d9479d9a00306f75c664c857f88d099ea60a5b40b8c571d2bcd5ddaa8c",
      "transactionIndex": "0x6f",
      "blockHash": "0x333b46f6630d6c6e40152f279c7d2fb0e6f470875928b283353a9f2b3124eb75",
      "blockNumber": "0x837182",
      "gasUsed": "0x29cad",
      "effectiveGasPrice": "0x17a96d",
      "from": "0xecf8990bf975edb6c7f18ffd1557d473803c4325",
      "to": "0x2694ad040fc7b42a3fd8872ae653a47ce567280b",
      "contractAddress": null
    }
  ],
  "libraries": [],
  "pending": [],
  "returns": {},
  "timestamp": 1750714153,
  "chain": 11155111,
  "commit": "90666b9"
}