{
  "transactions": [
    {
      "hash": "0x82c3f30b66d3f729319f49ba7d9413aa6b603c3ae6832b12e64622ff37d4dadf",
      "transactionType": "CALL",
      "contractName": null,
      "contractAddress": "0x2694ad040fc7b42a3fd8872ae653a47ce567280b",
      "function": "mintNft(string)",
      "arguments": [
        "https://bafybeicnjid52q5f5zrq6bs57bjviulqpycnxxdurlcyqrtchiyir6xwba.ipfs.dweb.link?filename=PudgeNft.json"
      ],
      "transaction": {
        "from": "0xecf8990bf975edb6c7f18ffd1557d473803c4325",
        "to": "0x2694ad040fc7b42a3fd8872ae653a47ce567280b",
        "gas": "0x39b9a",
        "value": "0x0",
        "input": "0xda86f4a90000000000000000000000000000000000000000000000000000000000000020000000000000000000000000000000000000000000000000000000000000006968747470733a2f2f62616679626569636e6a69643532713566357a72713662733537626a7669756c717079636e78786475726c637971727463686979697236787762612e697066732e647765622e6c696e6b3f66696c656e616d653d50756467654e66742e6a736f6e0000000000000000000000000000000000000000000000",
        "nonce": "0x10",
        "chainId": "0xaa36a7"
      },
      "additionalContracts": [],
      "isFixedGasLimit": false
    }
  ],
  "receipts": [
    {
      "status": "0x1",
      "cumulativeGasUsed": "0x1ed1ff9",
      "logs": [
        {
          "address": "0x2694ad040fc7b42a3fd8872ae653a47ce567280b",
          "topics": [
            "0xddf252ad1be2c89b69c2b068fc378daa952ba7f163c4a11628f55a4df523b3ef",
            "0x0000000000000000000000000000000000000000000000000000000000000000",
            "0x000000000000000000000000ecf8990bf975edb6c7f18ffd1557d473803c4325",
            "0x0000000000000000000000000000000000000000000000000000000000000001"
          ],
          "data": "0x",
          "blockHash": "0xa532171b02902585b7a3716f201ebc13b492d32f75b556b53884685a25ddeb3a",
          "blockNumber": "0x8370fd",
          "blockTimestamp": "0x6859c0ec",
          "transactionHash": "0x82c3f30b66d3f729319f49ba7d9413aa6b603c3ae6832b12e64622ff37d4dadf",
          "transactionIndex": "0x5f",
          "logIndex": "0x90",
          "removed": false
        }
      ],
      "logsBloom": "0x00000000000000000000000000000000000000000000000000000000000000000000000000000000000000000000000000000000000000000000000010040000000000000000000000000008000000000004000000040000000000000000000000000008020000000000000000000800000000000000000000000010000000000000000000000000000000008000000000000000000000000000000000000000000000000000000000000000000000000000000000000000000000000000000000000002000000000000000010000000000000000000000000000000000060000000000000000000000000000000000000000000000000001000000000000000",
      "type": "0x2",
      "transactionHash": "0x82c3f30b66d3f729319f49ba7d9413aa6b603c3ae6832b12e64622ff37d4dadf",
      "transactionIndex": "0x5f",
      "blockHash": "0xa532171b02902585b7a3716f201ebc13b492d32f75b556b53884685a25ddeb3a",
      "blockNumber": "0x8370fd",
      "gasUsed": "0x29cad",
      "effectiveGasPrice": "0x1a46448",
      "from": "0xecf8990bf975edb6c7f18ffd1557d473803c4325",
      "to": "0x2694ad040fc7b42a3fd8872ae653a47ce567280b",
      "contractAddress": null
    }
  ],
  "libraries": [],
  "pending": [],
  "returns": {},
  "timestamp": 1750712558,
  "chain": 11155111,
  "commit": "90666b9"
}