{
  "transactions": [
    {
      "hash": "0x40ebe379535b68eeb0f37f93ad6a956fdf62a91cc93a7ef3383c3311e067d70a",
      "transactionType": "CALL",
      "contractName": null,
      "contractAddress": "0x2694ad040fc7b42a3fd8872ae653a47ce567280b",
      "function": "mintNft(string)",
      "arguments": [
        "https://bafybeicnjid52q5f5zrq6bs57bjviulqpycnxxdurlcyqrtchiyir6xwba.ipfs.dweb.link?filename=PudgeNft.json"
      ],
      "transaction": {
        "from": "0xecf8990bf975edb6c7f18ffd1557d473803c4325",
        "to": "0x2694ad040fc7b42a3fd8872ae653a47ce567280b",
        "gas": "0x39b9a",
        "value": "0x0",
        "input": "0xda86f4a90000000000000000000000000000000000000000000000000000000000000020000000000000000000000000000000000000000000000000000000000000006968747470733a2f2f62616679626569636e6a69643532713566357a72713662733537626a7669756c717079636e78786475726c637971727463686979697236787762612e697066732e647765622e6c696e6b3f66696c656e616d653d50756467654e66742e6a736f6e0000000000000000000000000000000000000000000000",
        "nonce": "0x11",
        "chainId": "0xaa36a7"
      },
      "additionalContracts": [],
      "isFixedGasLimit": false
    }
  ],
  "receipts": [
    {
      "status": "0x1",
      "cumulativeGasUsed": "0x15d22b9",
      "logs": [
        {
          "address": "0x2694ad040fc7b42a3fd8872ae653a47ce567280b",
          "topics": [
            "0xddf252ad1be2c89b69c2b068fc378daa952ba7f163c4a11628f55a4df523b3ef",
            "0x0000000000000000000000000000000000000000000000000000000000000000",
            "0x000000000000000000000000ecf8990bf975edb6c7f18ffd1557d473803c4325",
            "0x0000000000000000000000000000000000000000000000000000000000000002"
          ],
          "data": "0x",
          "blockHash": "0x918c8e37cf44d0b1acdd27479a5fd273519df6fa47d3d9fa7ce903bd44ed4086",
          "blockNumber": "0x837158",
          "blockTimestamp": "0x6859c530",
          "transactionHash": "0x40ebe379535b68eeb0f37f93ad6a956fdf62a91cc93a7ef3383c3311e067d70a",
          "transactionIndex": "0x85",
          "logIndex": "0xb5",
          "removed": false
        }
      ],
      "logsBloom": "0x04000000000000000000000000000000000000000000000000000000000000000000000000000000000000000000000000000000000000000000000010000000000000000000000000000008000000000004000000000000000000000000000000000008020000000000000000000800000000000000000000000010000000000000000000000000000000008000000000000000000000000000000000000000000000000000000000000100000000000000000000000000000000000000000000000002000000000000000010000000000000000000000000000000000020000000000000000000000000000000000000000000008000001000000000000000",
      "type": "0x2",
      "transactionHash": "0x40ebe379535b68eeb0f37f93ad6a956fdf62a91cc93a7ef3383c3311e067d70a",
      "transactionIndex": "0x85",
      "blockHash": "0x918c8e37cf44d0b1acdd27479a5fd273519df6fa47d3d9fa7ce903bd44ed4086",
      "blockNumber": "0x837158",
      "gasUsed": "0x29cad",
      "effectiveGasPrice": "0x20a630",
      "from": "0xecf8990bf975edb6c7f18ffd1557d473803c4325",
      "to": "0x2694ad040fc7b42a3fd8872ae653a47ce567280b",
      "contractAddress": null
    }
  ],
  "libraries": [],
  "pending": [],
  "returns": {},
  "timestamp": 1750713649,
  "chain": 11155111,
  "commit": "90666b9"
}